:10000000020529020823FFFFFFFFFF02082BFFFF65
:10001000FFFFFF020833FFFFFFFFFF02083BFFFF68
:10002000FFFFFF020843FFFFFFFFFF02084BFFFF38
:10003000FFFFFF020853FFFFFFFFFF02085BFFFF08
:10004000FFFFFF020863FFFFFFFFFF02086BFFFFD8
:10005000FFFFFF020873FFFFFFFFFF02087BFFFFA8
:10006000FFFFFF020883FFFFFFFFFF02088BFFFF78
:10007000FFFFFF020893FFFFFFFFFF02089BFFFF48
:10008000FFFFFF0208A3FFFFFFFFFF0208ABB10362
:10009000E303E303E303E303E703EB3C904D534443
:1000A0004F53352E3000020401000210000000F80A
:1000B0000100000000000400000004000000000037
:1000C00029000000004E4F204E414D4520202020A9
:1000D000464154313220202000035F005F00300091
:1000E00058000000000000000000000000000000B8
:1000F0000000000000000000000000000000000000
:10010000000074F71202C543C707E59D5418641038
:10011000704275080475090078081204F17C9D7D11
:10012000147A9C7B06790112066274021204A7906D
:10013000149DE0F8A3E0F9A3E0687003A3E0697000
:100140001390149DE0F47003A3E0F46007E84960A5
:1001500003120650781075B60FE5B4A2E750FAE521
:10016000BBC3944A40F018E870EC75A80075B8005D
:10017000759A0075C6809062707408F079017F02EC
:10018000020371E4CFC0E0E4CEC0E0E4CDC0E0E41F
:10019000CCC0E075F020C3E633F608E633F608E697
:1001A00033F608E633F6181818EC33FCED33FDEEA1
:1001B00033FEEF33FFC3EC9709ED9709EE9709EF94
:1001C00097191919400FFFEC97FC09ED97FD09EEFF
:1001D00097FE191906D5F0BEECF709EDF709EEF711
:1001E00009EFF7191919D0E0FCD0E0FDD0E0FED0FE
:1001F000E0FF222518C582C0E0E51934FFC583C0A1
:10020000E0E518C3958224F810AF0885831985822C
:10021000188008858319858218D2AFCEF0A3E52017
:10022000F0A37808E608F0A3DEFAEFF0A3E5812456
:10023000FAF8E608F0A3E608F0A3E608F0A3080839
:10024000E608F0A3E608F0A315811581D0E0FED002
:10025000E0F8158115811581E8C0E0EEC0E02212BA
:100260000102B900030202AFE479217807B8000265
:100270008004F709D8FCE4900300782A7901800211
:10028000F0A3D8FCD9FA900329AA82AB8390008E00
:10029000787579018015E493A3AC82AD838A828B53
:1002A00083F0A3AA82AB838C828D83D8E9D9E775CA
:1002B00082027583D674071204547582A77583056C
:1002C00074001204542518C582C0E0E51934FFC536
:1002D00083C0E0E518C3958224F910AF088583191F
:1002E0008582188008858319858218D2AFCEF0A345
:1002F000E520F0A37808E608F0A3DEFAEFF0A3E526
:100300008124FBF8E608F0A3E608F0A30808E60855
:10031000F0A3E608F0A315811581D0E0FED0E0F847
:1003200015811581E8C0E0EEC0E0228519838518AB
:1003300082E0A3FEE0A3F5207808E0A3F608DFFA48
:10034000E0A3FFE0A3C0E0E0A3C0E0E0A3C0E0E0E2
:10035000A3C0E0E0A3C0E010AF0885821885831930
:100360008008858218858319D2AFD083D082020499
:100370005A851983851882E0A3FEE0A3F52078084A
:10038000E0A3F608DFFAE0A3FFE0A3C0E0E0A3C02B
:10039000E0E0A3C0E0E0A3C0E010AF0885821885CC
:1003A00083198008858218858319D2AFD083D082C3
:1003B0002212010002000000205104A816090001C9
:1003C00002030109022000010100800F090400005E
:1003D00002080650000705840240000007050402D9
:1003E000400000CC03102074038000CCC0E0EDC0BE
:1003F000E0E518C39CCCAD1950011D10AF068C1858
:100400008D1980068C188D19D2AF120414D0E0FD1E
:10041000D0E0FC22CAC0E0E0A3C582CCC582C5837F
:10042000CDC583F0A3C582CCC582C583CDC583DA93
:10043000E6D0E0CA227009080808226016181818C9
:10044000C6C333C608C633C608C633C608C633C6D5
:10045000D5E0EA22C09FF59FE473D09F22D083D0DD
:1004600082C09FE493C0E0740193C0E0740293F5EE
:100470009F222518F58210AF08F518400215198043
:1004800008F51840021519D2AF85198322BB010265
:10049000E722C082C08389828A83BB0003E0800296
:1004A000E493D083D08222C0D0251810AF08F5186D
:1004B000500205198008F51850020519D2AFD0D0A6
:1004C00022BB000EC082C0838A838982F0D083D091
:1004D0008222BB0101F722251810AF08F51840024F
:1004E00015198008F51840021519D2AF227403803F
:1004F0000474028000C0E0F404120472D0E012051B
:100500007822C3E096F008A3E096F008A3E096F006
:1005100008A3E096F022700422600D18C6C333C60B
:1005200008C633C6D5E0F4182275D00075813F7532
:100530001800751903759F0002025FC3E09608A3B7
:10054000E09608A3E09608A3E09622600C08C6C3D4
:1005500013C618C613C6D5E0F422E0F608A3E0F6E9
:1005600008A3E0F608A3E0F622E6F008A3E6F00808
:10057000A3E6F008A3E6F022CAC0E0E6F0A308DA9A
:10058000FAD0E0FA22E0FAA3E0FBA3E0FCA3E0FD4E
:1005900022EAF0A3EBF0A3ECF0A3EDF0222518F58E
:1005A00082E43519F5832200000080FBE473120415
:1005B0005DAAE30712045D48E40712045DDCE4076A
:1005C00012045DF6E40712045DECE50712045D44D5
:1005D000E80712045DE7E90712045DAEEA071204BA
:1005E0005DAAEC0712045D91ED0712045DFEED07B4
:1005F00012045D32EE0712045DA9EE0712045DBC21
:10060000F00712045DEBF10712045DEDF10712042F
:100610005D2AF20712045D2CF20712045D2EF20728
:1006200012045D3FF20712045D41F20712045D44BB
:10063000F20712045D24D10712045D77D10712047A
:100640005D7CD10712045D43D20712045D5AD307C3
:1006500012045DB3D40712045DC0D40712045D0F09
:10066000D50712045D19D60712045D9CD607120443
:100670005D0BD70712045D86D70712045DA5D70767
:1006800012045DEAD70712045D20D80712045DC486
:10069000D80712045DFCD80712045D1BD9071204A9
:1006A0005D4BDB0712045D80DB0712045DAADB07EC
:1006B00012045DE5DB0712045DCDDC0712045DB7B3
:1006C000DD0712045DC9DD0712045DDBDD071204DE
:1006D0005D21DE0712045DB6DF0712045D16E10737
:1006E00012045D4EE10712045DF8E10712045D5546
:1006F000E20712045DCBE20712045D09E30712046E
:100700005D10070012045D66070012045DAC07006F
:1007100074F71201F3740912059DE0F8A3E0801547
:10072000A3AA82AB838C828D83A3AC82AD83E824A1
:10073000FF18E934FFF9E84960238A828B83E0FEE1
:100740008C828D83E06E8A828B8360D4E0F88C8209
:100750008D83E0FAE8C39AFA95E0FB80047A007B87
:10076000007F0102032B74F61201F3740A12059D37
:10077000E0FEA3E0FFEAF8EBF980188C828D83E0BD
:1007800088828983F0A3A882A9838C828D83A3ACFD
:1007900082AD838E088F09E50824FF1EE50934FF2A
:1007A000FFE508450970D47F0202032B74F712019C
:1007B000F3740912059DE0F8A3E0F98A828B838027
:1007C00003ECF0A3E8FEE9FFEE24FF18EF34FFF995
:1007D000EE4F70ED7F0102032BFFFFFFFFFFFFFFD6
:1007E000FFFFFFFFFFFFFFFFFFFFFFFFFFFFFFFF19
:1007F000FFFFFFFFFFFFFFFFFFFFFFFFFFFFFFFF09
:10080000FFFFFFFFFFFFFFFFFFFFFFFFFFFFFFFFF8
:10081000FFFFFFFF77FF0001020304050607080939
:10082000020B92021A81FFFFFFFFFFFFFFFFFFFF96
:10083000FFFFFFFFFFFFFFFFFFFFFFFFFFFFFFFFC8
:10084000FFFFFFFFFFFFFFFFFFFFFF021756FFFF46
:10085000FFFFFFFFFFFFFFFFFFFFFFFFFFFFFFFFA8
:10086000FFFFFF02171CFFFFFFFFFFFFFFFFFFFF60
:10087000FFFFFF021AF4FFFFFFFFFFFFFFFFFFFF75
:10088000FFFFFFFFFFFFFFFFFFFFFF021733FFFF29
:10089000FFFFFFFFFFFFFFFFFFFFFFFFFFFFFFFF68
:1008A000FFFFFF0219B7FFFF08094269736375690B
:1008B00074051250002003020A0002010611061EF0
:1008C000948DF1483194BA754C3E5000003D714210
:1008D0006973637569740000000000000000000087
:1008E00000000000422000004E20025265642042B9
:1008F000656172204C61622E436861726163746548
:1009000072697374696320310010436861726163B6
:10091000746572697374696320320004436861729C
:100920006163746572697374696320330008436896
:100930006172616374657269737469632034000263
:1009400001014368617261637465726973746963FC
:100950002035000283900100006C90027F9001001E
:1009600000810C100E8F010000820C027D900100AE
:10097000008F0C027F90010000A00C101E8F010060
:1009800000A502027B90030000B902027D900100E5
:1009900000A10C027F90010000B20C102E8F02000B
:1009A00000BF02027D90010000B30C027F900100A5
:1009B00000C40C103E8F020000C002027D900100B6
:1009C00000C50C027F90010000D60C104E8F010074
:1009D00000D70C027D90010000D90C4E2F41004839
:1009E000524D2D4141424243434444454546460011
:1009F00001E803053F10FF00013075030201060006
:100A000000000000000000000000000000000000E6
:100A10000000000000000000000000FFFF06008052
:100A20000CE803FF0000007800280028002830753B
:100A3000A000A000A000A00000080008E001F00055
:100A400010001000100010001000100050005000A6
:100A5000500010001000D0070000000000000F0040
:100A600030750700100001000000FFAA24C824B060
:100A700024FF02020A0A025000A0000000E803025C
:100A800083900100006690027F90010000090E0231
:100A90007990010000AB07027F900100000A0E026E
:100AA0007790010000C007027F900100000B0E024A
:100AB0007590030000C207027F900100000C0E0237
:100AC0007390030000C307027F900100000D0E0227
:100AD00071900100000E0EFF0100FF2002839001C3
:100AE00000006990027F90010000720E026F90007A
:100AF00000000000027B900300001008B22BB22B14
:100B0000B22BB22BB22BB22BB22BB22BB22BB22BFD
:100B1000B22BB22BB22B642E7C2E5E2EE5C754F87E
:100B20004401F5C779012200000080FB120B1CB9BB
:100B30000003020B7CE479127808B800028004F705
:100B400009D8FCE490028078BE790A8002F0A3D82C
:100B5000FCD9FA900C3DAA82AB839008A6787779ED
:100B6000038015E493A3AC82AD838A828B83F0A3C8
:100B7000AA82AB838C828D83D8E9D9E7758202750E
:100B800083C77403120BA475822775830B7400123C
:100B90000BA475D00075813F751080751102759F8B
:100BA00000020B2CC09FF59FE473D09F22D083D00E
:100BB00082C09FE493C0E0740193C0E0740293F597
:100BC0009F22FFFFFFFFFFFFFFFFFFFFFFFFFFFF72
:100BD000FFFFFFFFFFFFFFFFFFFFFFFFFFFFFFFF25
:100BE000FFFFFFFFFFFFFFFFFFFFFFFFFFFFFFFF15
:100BF000FFFFFFFFFFFFFFFFFFFFFFFFFFFFFFFF05
:100C0000FFFFFFFFFFFFFFFFFFFFFFFFFFFFFFFFF4
:100E9000FFFFFFFFFFFFFFFFFFFFFFFF12201220FA
:100EA000FFFF0000FFFFFFFFFFFFFFFFFFFFFFFF50
:100EB000FFFFFFFFFFFFFFFFFFFFFFFFFFFFFFFF42
:100EC000FFFFFFFFFFFFFFFFFFFFFFFFFFFFFFFF32
:100ED000FFFFFFFCFFFFFFFFFFFFFFFFFFFFFFFF25
:100EE000FFFFFFFFFFFFFFFFFFFFFFFFFFFFFFFF12
:100EF000FFFFFFFFFC0AFFFF00FFFFFF00FFFFFFF8
:100F000042320030003100330030000F002B390036
:100F1000310032002E006200690000006E00000007
:100F200001420069007300630075000F002B690027
:100F300074002D00550041005200000054005F0075
:100F40004249534355497E3142494E20000C82703C
:100F50004144414400008A8D7E43030000B80300F1
:100F60000000000000000000000000000000000081
:100F70000000000000000000000000000000000071
:100F80000000000000000000000000000000000061
:100F90000000000000000000000000000000000051
:100FA0000000000000000000000000000000000041
:100FB0000000000000000000000000000000000031
:100FC0000000000000000000000000000000000021
:100FD0000000000000000000000000000000000011
:100FE0000000000000000000000000000000000001
:100FF00000000000000000000000000000000001F0
:10100000E066701008A3E066700A08A3E06670044A
:1010100008A3E06622E49366701308740193667077
:101020000C08740293667005087403936622C3E784
:10103000960809E7960809E7960809E79622C3E0AB
:101040009608A3E09608A3E09608A3E09622C008BD
:10105000C3E096F50808A3E096420808A3E096428C
:101060000808A3E09645087001D3D00822080808B4
:10107000EAC0E0EBC0E086F0E7A4FA180986F0E7E2
:10108000A42AFA180986F0E7A42AFA180986F0E7D4
:10109000A42AFA1986F0E7A4FBE5F02AFA190886D3
:1010A000F0E7A42BFBE5F03AFA190886F0E7A42B49
:1010B000FBE5F03AFA18180986F0E7A4C5F02BFB17
:1010C000E43AFA1908E7C5F0C6A426F6E5F03BFBBA
:1010D000E43AFA1886F0E7A4F6E5F00826F6E43BD1
:1010E00008F6E43A08F6D0E0FBD0E0FA22E4CFC0FC
:1010F000E0E4CEC0E0E4CDC0E0E4CCC0E075F02098
:10110000C3E633F608E633F608E633F608E633F6C8
:10111000181818EC33FCED33FDEE33FEEF33FFC34C
:10112000EC9709ED9709EE9709EF97191919400FF8
:10113000FFEC97FC09ED97FD09EE97FE191906D50E
:10114000F0BEECF709EDF709EEF709EFF7191919F9
:10115000D0E0FCD0E0FDD0E0FED0E0FF2260160839
:101160000808C6C313C618C613C618C613C618C6C1
:1011700013C6D5E0EA22700908080822601618187C
:1011800018C6C333C608C633C608C633C608C63336
:10119000C6D5E0EA22E627F60809E637F60809E6AA
:1011A00037F60809E637F622E026F608A3E036F619
:1011B00008A3E036F608A3E036F622E026F008A3FE
:1011C000E036F008A3E036F008A3E036F022C3E6EC
:1011D00097F60809E697F60809E697F60809E697EC
:1011E000F622C3E096F008A3E096F008A3E096F09C
:1011F00008A3E096F022E056F608A3E056F608A30E
:10120000E056F608A3E056F622E056F008A3E056B2
:10121000F008A3E056F008A3E056F022E046F608F6
:10122000A3E046F608A3E046F608A3E046F622E06F
:1012300046F008A3E046F008A3E046F008A3E04625
:10124000F022E0F608A3E0F608A3E0F608A3E0F633
:1012500022E6F008A3E6F008A3E6F008A3E6F022F1
:10126000E0FAA3E0FBA3E0FCA3E0FD22EAF0A3EB9D
:10127000F0A3ECF0A3EDF022CAC0E0E6F0A308DA98
:10128000FAD0E0FA22CAC0E0E0A3C582CCC582C58C
:1012900083CDC583F0A3C582CCC582C583CDC5836C
:1012A000DAE6D0E0CA22C3E498F8E499F91212E72A
:1012B0008026C3E49AFAE49BFBE920E7E91212E7EF
:1012C000E498F8E499F922C3E498F8E499F9121241
:1012D000E7E498F8E499F9C3E49AFAE49BFB22EB7B
:1012E00020E7CFE920E7E0B90010BB0008E88AF06A
:1012F00084F8AAF022E4FBC8FA22EB70227B10C823
:1013000033C8C933C9335007C39AC3DBF280069A86
:1013100050012ADBEAC833F4C8C933F4C9FA22758C
:10132000F008E4C833C8C933C933C99AC99B50040B
:10133000C92AC93BD5F0ECFBC833F4C8E4C9FA228A
:10134000600D08C6A2E713C618C613C6D5E0F3227F
:10135000600C08C6C313C618C613C6D5E0F42270C5
:101360000422600D18C6C333C608C633C6D5E0F4E0
:101370001822251010AF08F510400215118008F54D
:101380001040021511D2AF22C0D0251010AF08F5C1
:1013900010500205118008F51050020511D2AFD08F
:1013A000D0222510F58210AF08F5104002151180EB
:1013B00008F51040021511D2AF851183222510F5D2
:1013C00082E43511F58322E4732510C582C0E0E57F
:1013D0001134FFC583C0E0E510C3958224F810AF37
:1013E000088583118582108008858311858210D23B
:1013F000AFCEF0A3E520F0A37808E608F0A3DEFA6C
:10140000EFF0A3E58124FAF8E608F0A3E608F0A3DC
:10141000E608F0A30808E608F0A3E608F0A31581A3
:101420001581D0E0FED0E0F8158115811581E8C066
:10143000E0EEC0E0222510C582C0E0E51134FFC512
:1014400083C0E0E510C3958224F910AF08858311AD
:101450008582108008858311858210D2AFCEF0A3DB
:10146000E520F0A37808E608F0A3DEFAEFF0A3E5A4
:101470008124FBF8E608F0A3E608F0A30808E608D4
:10148000F0A3E608F0A315811581D0E0FED0E0F8C6
:1014900015811581E8C0E0EEC0E02285118385103A
:1014A00082E0A3FEE0A3F5207808E0A3F608DFFAC7
:1014B000E0A3FFE0A3C0E0E0A3C0E0E0A3C0E0E061
:1014C000A3C0E0E0A3C0E010AF08858210858311BF
:1014D0008008858210858311D2AFD083D082020B21
:1014E000AA851183851082E0A3FEE0A3F520780889
:1014F000E0A3F608DFFAE0A3FFE0A3C0E0E0A3C0AA
:10150000E0E0A3C0E0E0A3C0E010AF088582108552
:1015100083118008858210858311D2AFD083D08259
:1015200022C0D02510C582C0E0E51134FFC583C0BC
:10153000E0E510C3958224F310AF088583118582FE
:10154000108008858311858210D2AFC8F0A3E9F01E
:10155000A3EAF0A3EBF0A37908E709F0A3D8FAEC2B
:10156000F0A3EDF0A3EEF0A3EFF0A3D0E0F0A3D052
:10157000E0F0A3D0E0F0A3E520F0A3E5F0F0A32293
:10158000851183851082E0C0E0A3E0F9A3E0FAA30F
:10159000E0FBA37808E0F608A3DFFAE0FCA3E0FD97
:1015A000A3E0FEA3E0FFA3E0C0E0A3E0C0E0A3E06F
:1015B000F5D0A3E0F520A3E0A3F5F010AF088583F4
:1015C000118582108008858311858210D2AFD08268
:1015D000D083D0E0F8D0E032740480067402800238
:1015E0007401C0E0F4041213A2D0E0121278227445
:1015F00004800474028000CCC0E0EDC0E0E510C3BC
:101600009CCCAD1150011D10AF068C108D118006C1
:101610008C108D11D2AF121285D0E0FDD0E0FC22EB
:10162000D083D082E9C0E0E493A3C386F0C5F095EF
:10163000F0F908E493A386F0C5F095F0700BE493FD
:10164000A3C3994005E9048002A3E475F002A42530
:1016500082F582E5F03583F583D0E0F9E493A3C009
:10166000E0E493C0E022D083D082ECC0E0EDC0E0A3
:10167000E493A3FCE493A3FDED4C600D1216B2ECD1
:1016800024FFFCED34FFFD80EFE493A3FCE493A37F
:10169000FDED4C600D1216F1EC24FFFCED34FFFD66
:1016A00080EFD0E0FDD0E0FCE493A3C0E0E493C081
:1016B000E022C0E0C3E49396087401939618400FAB
:1016C000E49366700808740193661870007019A39B
:1016D000A3C3E49396087401939618A3A3400DD076
:1016E000E0D0E0D0E00216A2A3A3A3A3A3A3D0E07E
:1016F00022C0E0C0F088F0E493667008087401939B
:1017000066187000A8F0A3A3700BD0F0D0E0D0E072
:10171000D0E00216A2A3A3D0F0D0E022C0E074F281
:10172000121521C2C0E5D1A2E450031221C87F01E5
:10173000021580C0E074F2121521E589A2E040068E
:10174000E589A2E15003122180758900758900C2E4
:10175000C57F01021580C2C73274F5121435EAFE46
:10176000EBFFEE2434F8EF3400F988088909EE2401
:1017700035F582EF3400F583E0F8EE2437F582EF9B
:101780003400F583E0F50AEC850AF0A4FCAAF085A4
:101790000AF0EDA42AFDE82CF8E43DF97A257B0057
:1017A0001212E7EA850882850983F05407F874016C
:1017B000B800028004C333D8FCC0E0E01313135414
:1017C0001FF8EE28F8EF3400F9E8245DF582E934DB
:1017D00000F583D0E0F8E0586008EE2434F582EF9D
:1017E000801EEE2436F582EF3400F583E0F5F0EA52
:1017F00084A8F0EE28F8EF3400F9E82438F582E9FF
:101800003400F583E0F97F040214E174F512143515
:101810008A088B09EA2434F582EB3400F583E0C0B2
:10182000E0EA2435F582EB3400F583D0E0F08A82DB
:101830008B83A3A3A3A3A3A3A3C082C0838A828B09
:1018400083A3A3A3A3A3E0F8A3E0F9D083D082E00D
:10185000C398FEA3E099FFEA2480F582EB3400F5FB
:1018600083E064017049EA2481F582EB3400F5835A
:10187000E0FCA3E0FD8A828B83A3A3A3A3A3A3A37D
:10188000E0FAA3E0FBC3E89AE99B4003021937C3DF
:10189000EA9CEB9D40197CED7D09AA08AB09122B4F
:1018A00016E5082480F582E5093400F583E4F0E5C7
:1018B000082434F8E5093400F9E8FCE9FDE50824DA
:1018C00035F582E5093400F583E0F8E5082437F5BD
:1018D00082E5093400F583E0F50AEE850AF0A4FEFE
:1018E000AAF0850AF0EFA42AFFE82EF8E43FF97A7F
:1018F000257B001212E7EA8C828D83F05407F8747E
:1019000001B800028004C333D8FCC0E0E013131315
:10191000541FF8E50828F8E5093400F9E8245DF5D6
:1019200082E93400F583D0E0F8E0586017E5082438
:1019300034F582E509802FC3E89CE99D5003021825
:101940009602188FE5082436F582E5093400F58300
:10195000E0F5F0EA84A8F0E50828F8E5093400F994
:10196000E82438F582E93400F583E0F9121F0E020D
:101970001806C082C083851082851183E0F8A3E039
:10198000F9C3EA9CEB9D500BC3EC98ED994012799A
:10199000018010C3EA98EB9940F5C3EC98ED99509B
:1019A000EE7900D083D08222EAC39CFAEB9DFB2221
:1019B0008512878513C622C0E0C0D0E8C0E0E9C028
:1019C000E0EAC0E0EBC0E0ECC0E0EDC0E0C082C007
:1019D00083C0F0759B00906182E0A2E6503DE591E6
:1019E000A2E650377591BF9008BAE06405700812FE
:1019F0002C42122C4E8003122C48751200122CB46B
:101A0000E99008BBF07900122CA8122A867A017B93
:101A1000009008B9E0F9121F7C8049E0A2E550244B
:101A2000E591A2E5501E7591DF9008BAE0640D7053
:101A3000139008DBE004F064287002E4F07A00E020
:101A4000F9122D44906181E0A2E35009E5E9A2E397
:101A5000500375E9F7A3E0A2E75009E591A2E7502A
:101A60000375917FD0F0D083D082D0E0FDD0E0FC30
:101A7000D0E0FBD0E0FAD0E0F9D0E0F8D0D0D0E070
:101A800032C0E0C0D0C082C083906183E0A2E05049
:101A900009E5BFA2E0500375BFFEE0A2E15009E5F1
:101AA000BFA2E1500375BFFDE0A2E25009E5BFA26D
:101AB000E2500375BFFBE0A2E35009E5BFA2E3508B
:101AC0000375BFF7E0A2E45009E5BFA2E450037537
:101AD000BFEFE0A2E55009E5BFA2E5500375BFDF07
:101AE000E0A2E65009E5BFA2E6500375BFBFD08370
:101AF000D0828088C0E0C0D0E8C0E0E9C0E0EAC0A1
:101B0000E0EBC0E0ECC0E0EDC0E0C0F0E5A7A2E48F
:101B1000500FE5A1A2E4500953A7EF75A1EF121BE6
:101B200059E5A7A2E5500CE5A1A2E5500653A7DFB1
:101B300075A1DFE5A7A2E15009E5A1A2E150037577
:101B4000A1FDE5A7A2E2500CE5A1A2E2500653A731
:101B5000FB75A1FBD0F0021A6A74F81214357512E5
:101B6000019008BAE0640670077A007B00122C2A04
:101B7000A2AFE433FED2AF9008BFE0640170187AE0
:101B8000207B009008B9E0F9121FFA7A207B0090C0
:101B900008B9E0F9121F82906182E0D2E6F085C6B2
:101BA0001380169008BEE064017008E5C654F8443E
:101BB00005F5C653BEFC1219B07401651260E453FA
:101BC000BEFCEEA2E092AF7F010214E18E148F15ED
:101BD000858219858318851082851183E0CEA3E064
:101BE000CF851982851883EBC9EAC8EDCBECCA759D
:101BF000F010C3E833C8E933C9EA33CAEB33CBC3C7
:101C0000EA9EF517EB9FF516B35004AB16AA17EC36
:101C100033CCED33CDD5F0DAAE14AF152274F1121A
:101C200014358A0C8B0D8C0E8D0F740F1213BD782A
:101C300008121242909042780C1211F6909042785D
:101C4000081211F6780C790812102E5015780C79BC
:101C5000081211CE90901E780C12104E401579018A
:101C600080137808790C1211CE90901E780812100B
:101C70004E40EB79007F080214E174F112143574C0
:101C8000FC121372851082851183EAF0A3EBF0A396
:101C9000ECF0A3EDF074131213BD78081212429009
:101CA0009042780C121242851082851183780C12B2
:101CB000120990904278081211F6851082851183DE
:101CC000780812103E4014851082851183780C121A
:101CD0001242780C79081211CE801E750C00750D19
:101CE00000750E00750F01780C79081211CE851061
:101CF00082851183780C1211A8AA0CAB0DAC0EAD25
:101D00000F7404121388021C7574F11214358A0CB6
:101D10008B0D8C0E8D0F740F1213BD7808121242AA
:101D2000909042780C1211F690904278081211F6B9
:101D30007808790C12102E4011780C79081211CE07
:101D4000AA0CAB0DAC0EAD0F800F7808790C1211F8
:101D5000CEAA08AB09AC0AAD0B021C759090427874
:101D6000081212428A828B8378081212097F0402B9
:101D700014E174F51214358C828D837808121242A6
:101D80008A828B8378081211E2EA2404F8EB34008B
:101D9000F98C828D83A3A3A3A3E0FCA3E0FD88823A
:101DA0008983C3E09CF0A3E09DF088828983C3E02F
:101DB0009420A3E0944E4022909022780812124280
:101DC0008A828B8378081211BB8A828B83A3A3A398
:101DD000A3E02420F0A3E0344EF0808074F51214C8
:101DE00035E9FE7A007B00900295E064017008906E
:101DF0000A03E0FAA3E0FBEEC333F8E433F9745EC0
:101E000028F582748F39F583E02AF508A3E03BF5C5
:101E10000978081215DC90900E121260121BCC7417
:101E2000021213888A088B098C0A8D0B74107808AB
:101E300012115DAA08AB097F040214E174F11214B7
:101E4000358A0C8B0D8C0E8D0F740F1213BDE0FABA
:101E5000A3E0FB74111213BDE0F508A3E0F50974CB
:101E6000131213BDE0FEA3E0FF78081215DCEA248C
:101E700001F508EB3400F509E4F50AF50B780C7967
:101E80000812106D9090267808121242780C79088A
:101E900012106DAA0CAB0DAC0EAD0F121BCC740260
:101EA0001213888A088B098C0A8D0B8B0DEA450D5D
:101EB00060047A0180027A007410780812115DECD7
:101EC0002AFCED3400FDECF8EDF97A717B02121278
:101ED000E7880889098E828F837808121251ECF8FE
:101EE000EDF97A717B021212E7EA2401F508EB346E
:101EF00000F5097405780812135F8E828F83A3A3FF
:101F0000A3A3E508F0A3E509F07F080214E1C0826D
:101F1000C083E9906000F0D083D08222120BADD84C
:101F2000F502120BADE2F502120BAD18F602120B20
:101F3000AD61F602120BAD9BF602120BADF9F60283
:101F4000120BAD1AF702120BAD23F702120BAD778D
:101F5000F702120BADA0F702120BADAAF702120B9B
:101F6000ADB4F702120BAD22F802120BADAAF802C3
:101F7000120BAD17F902120BAD45F902120BADD6DB
:101F8000F902120BAD15FA02120BAD4AFA02120B4E
:101F9000AD5CFA02120BAD7BFA02120BAD84FA02B1
:101FA000120BAD35FB02120BADA3C603120BAD3104
:101FB000C303120BAD08B603120BAD3EB603120BF2
:101FC000AD72B603120BADCFB703120BAD43C60310
:101FD000120BAD59C603120BAD3B9303120BAD4E62
:101FE0009303120BAD349403120BAD739403120BD5
:101FF000AD909403120BADC99403120BAD1695036B
:10200000120BAD489503120BAD7F9503120BAD8BF0
:102010009703120BAD6BBB03120BAD24BC03120B69
:10202000AD47BC03120BAD76BC03120BAD8EBC03E7
:10203000120BADD0BC03120BADBF9F03120BAD0151
:10204000A203120BAD82A203120BAD2BA303120B42
:10205000AD3DA303120BAD378503120BAD7C850399
:10206000120BAD998503120BAD568603120BADB45E
:102070008603120BADFA8703120BADD58903120B41
:10208000ADB6C703120BAD5EC703120BAD5AB90153
:10209000120BAD23BB01120BADBEBC01120BAD5E2A
:1020A000BD01120BADD9BD01120BAD5CBE01120B0F
:1020B000AD8DBE01120BAD08C201120BAD88C2017D
:1020C000120BAD91C301120BADCBC301120BAD0CC2
:1020D000C401120BAD78C501120BADC0C501120BC6
:1020E000AD09C601120BAD60C601120BADAEC60143
:1020F000120BADDCC601120BADF4C601120BADDB49
:10210000C701120BAD11C801120BADC2C801120BF1
:10211000ADD9C801120BAD0BC901120BADA9CA0193
:10212000120BAD26CB01120BAD64CB01120BADEF40
:10213000FF01120BADAD7F00120BADEC7F00120B57
:10214000AD25C803120BAD23C503120BAD33C50378
:10215000120BAD4BC503120BADB3C503120BAD2F64
:10216000C203120BADB4C203120BAD18C303120BA2
:10217000AD1EC103120BAD40C103120BADA1C103D3
:10218000120BADF1C103120BAD63FB02120BAD716B
:10219000FB02120BADEBFB02120BADBDFC02120BEE
:1021A000AD7DFF02120BAD008003120BAD6D8003FD
:1021B000120BAD248103120BAD918103120BADB74D
:1021C0008203120BAD2A8403120BAD8E8403120B13
:1021D000ADDA8403120BADE38403120BADF284037A
:1021E000120BAD058503120BAD1B8503120BAD243D
:1021F0008503120BAD38C803120BAD19BD03120BCA
:10220000AD6EBD03120BADD5BD03120BAD42BE03C7
:10221000120BAD30B103120BAD5AB103120BAD3539
:10222000B203120BAD2AB303120BAD06E102120B7F
:10223000ADE5E102120BAD26E202120BAD84E20223
:10224000120BADD8E202120BAD2EE302120BADC29F
:10225000E302120BADC5E402120BAD83E602120BD2
:10226000AD0EE702120BAD77E702120BAD85E70268
:10227000120BADA3E802120BAD15AA02120BAD1E94
:10228000AD02120BADAAAE02120BADFAAE02120BEA
:10229000AD14AF02120BAD94AF02120BADA7B10299
:1022A000120BAD5EB502120BAD97BE03120BAD8FD4
:1022B000BF03120BAD09B803120BAD20B803120B0C
:1022C000AD4FB803120BAD88B803120BADB0B80315
:1022D000120BADDEB803120BADF5B803120BAD0C4B
:1022E000B903120BAD22B903120BAD49B903120B9E
:1022F000AD5CB903120BAD72B903120BAD85B90316
:10230000120BADAAB903120BADA9CD02120BADAAE7
:10231000CE02120BADDFCE02120BAD00CF02120BBC
:10232000AD10CF02120BAD31CF02120BAD39D0027E
:10233000120BADFFD002120BADB3D102120BAD35B3
:10234000D202120BAD38D202120BAD6FD202120BB9
:10235000AD97D202120BAD77D302120BADD8D302D8
:10236000120BAD45D402120BADBFD402120BADC29D
:10237000D402120BADC5D402120BAD6FD502120BF5
:10238000AD87D502120BADB1D502120BADDAD50275
:10239000120BADB2D602120BAD6FD702120BAD0EFF
:1023A0008A03120BAD368A03120BAD648A03120B3B
:1023B000AD9B8A03120BAD038B03120BAD4C8B0349
:1023C000120BAD9C8B03120BADDA8B03120BAD1706
:1023D0008C03120BAD458C03120BADD48C03120B86
:1023E000ADDE8C03120BADEB8C03120BAD1E8D0317
:1023F000120BADEA8D03120BADF68D03120BAD0E71
:102400008E03120BAD188E03120BAD2BC403120BEF
:10241000AD39C403120BAD51C403120BAD69C40333
:10242000120BADCCDB01120BAD6EDC01120BADE675
:10243000DC01120BAD04DE01120BAD27DE01120B25
:10244000ADC6DE01120BAD9DDF01120BADD6E00172
:10245000120BAD7AE101120BADECE101120BADEF05
:10246000E201120BAD3EE301120BAD62E301120B70
:10247000AD89E501120BADCDE501120BADEFE50124
:10248000120BAD3DE601120BAD3FE701120BAD2C77
:10249000E801120BAD47F901120BAD19FA01120B4D
:1024A000ADE2FA01120BAD1FFB01120BADACFB014B
:1024B000120BAD38FC01120BAD0FFD01120BAD3E3E
:1024C000FD01120BADFFFD01120BAD3EFE01120B23
:1024D000ADCAFE01120BAD0EFF01120BAD34FF01B0
:1024E000120BADBDC503120BAD7BA303120BAD9157
:1024F000A303120BADB7A303120BADD2A403120BAF
:10250000ADDCA403120BAD27A603120BAD27A70366
:10251000120BADDA8E03120BADD28F03120BADFE90
:102520008F03120BADB09103120BAD5DCC01120BFA
:10253000ADC0CC01120BAD00CE01120BAD10CE011F
:10254000120BAD33CE01120BAD7ECE01120BAD25B9
:10255000CF01120BAD39D001120BAD0DD101120B11
:10256000AD81D201120BADBAD201120BAD5BD3011A
:10257000120BADA8D301120BADCED301120BADA13E
:10258000D501120BADA6D501120BAD8DD701120BE3
:10259000ADD4D701120BAD43D801120BAD6BD801EE
:1025A000120BAD0AD901120BADCCD901120BADFD46
:1025B000D901120BAD00DA01120BAD48DA01120B92
:1025C000AD8ADA01120BADF7DA01120BADA2B3033B
:1025D000120BADB5B303120BADCEB303120BAD139B
:1025E000B403120BADECB403120BAD91B503120B97
:1025F000ADDEB503120BAD3C2F00120BAD482F0022
:10260000120BAD812F00120BADC32F00120BAD7A50
:102610003000120BADFC3000120BAD523100120B2A
:10262000AD7C3100120BADB53100120BADED3300B6
:10263000120BADD43500120BADA73700120BADDB7A
:102640003800120BAD323B00120BAD403C00120BB8
:10265000AD8B3D00120BADB03E00120BADCD3E0078
:10266000120BAD053F00120BAD1F3F00120BAD95D5
:102670003F00120BAD9A4400120BAD3D4500120B0A
:10268000AD9D4500120BADC44500120BAD154600C3
:10269000120BAD334600120BAD914600120BAD6824
:1026A0004700120BADE44800120BAD664900120B57
:1026B000ADDAD702120BADE4D702120BAD9ED802F1
:1026C000120BADD6D802120BAD03D902120BAD62BC
:1026D000D902120BAD88D902120BADDBD902120B55
:1026E000AD17DA02120BAD3FDA02120BAD71DB024D
:1026F000120BAD9CDB02120BADD6DB02120BAD163A
:10270000DC02120BAD3ADC02120BAD84DC02120BC0
:10271000ADBEDC02120BAD00DD02120BAD33DD02EB
:10272000120BAD5EDD02120BADB9DD02120BADF284
:10273000DD02120BAD6BDE02120BADAADE02120B34
:10274000ADF1DE02120BAD1BDF02120BAD58DF0242
:10275000120BAD82DF02120BADB3DF02120BADF232
:10276000DF02120BAD25E002120BAD6EE002120B80
:10277000ADB7E002120BADE1E002120BADE69B0338
:10278000120BAD249C03120BAD879C03120BAD43BF
:102790009D03120BAD249E03120BAD529E03120B30
:1027A000AD3F9F03120BAD629C02120BAD7B9C02EE
:1027B000120BADB39D02120BAD9C9E02120BADBB72
:1027C0009E02120BAD7C9F02120BADC2A002120B37
:1027D000ADA0A102120BAD1AA502120BADA7A50266
:1027E000120BAD6BA602120BAD5BA702120BADC7AD
:1027F000A802120BAD5DA902120BADD8A902120BF3
:10280000AD31A703120BAD5EA703120BADC2A70338
:10281000120BADCDA703120BADD8A703120BADE37E
:10282000A703120BAD15A803120BADE7A803120BFB
:10283000AD64A903120BADF4A903120BADFDA903FE
:10284000120BAD1DAA03120BAD2CAA03120BAD4443
:10285000AA03120BAD4DAA03120BAD64AA03120B0F
:10286000AD85AA03120BAD8EAA03120BAD9AAA0373
:10287000120BADA3AA03120BADB3AA03120BADBD8D
:10288000AA03120BADC7AA03120BADD7AA03120BF2
:10289000AD09C003120BAD72C003120BADC6C0036D
:1028A000120BADEDC003120BAD989703120BAD05E3
:1028B0009803120BAD479803120BAD3C9903120B12
:1028C000AD3F9A03120BAD299B03120BAD2077008D
:1028D000120BAD627700120BAD4B7800120BAD2BD3
:1028E0007900120BAD267A00120BAD067B00120B9D
:1028F000AD727B00120BAD307C00120BADA07C00E2
:10290000120BAD077D00120BAD327D00120BAD989E
:102910007D00120BAD407E00120BADB17E00120B9C
:10292000ADCA7E00120BAD0E7F00120BAD277F00EB
:10293000120BAD867F00120BAD897F00120BAD44E8
:10294000AE03120BAD6CAE03120BADAAAE03120BAD
:10295000AD57AF03120BADCBAF03120BADE7AF0317
:10296000120BAD0FB003120BAD3FB003120BAD4E07
:10297000B003120BADC2B003120BADE8B003120BE3
:10298000AD8C9001120BADD69101120BAD5093019D
:10299000120BAD189401120BAD639401120BADAE86
:1029A0009401120BADCC9401120BAD0E9501120BDC
:1029B000AD2A9501120BAD789501120BADA79501CB
:1029C000120BADDB9501120BAD289601120BAD9BDE
:1029D0009601120BAD629A01120BADC09B01120B56
:1029E000AD2C9C01120BADA69C01120BAD509E01AB
:1029F000120BADA99E01120BADEC9F01120BAD475E
:102A0000A001120BADBAA001120BAD06A101120B71
:102A1000AD2CA101120BADF5A101120BAD20A2014D
:102A2000120BAD96A201120BAD0CA301120BAD540B
:102A3000A301120BAD76A301120BAD70A401120B12
:102A4000AD9DA401120BADFBA401120BADF7B602B4
:102A5000120BAD22B702120BADDEBD02120BAD7828
:102A6000BF02120BAD14C102120BAD57C202120B02
:102A7000ADCF4900120BAD4E4A00120BAD7B4A00A0
:102A8000120BADC14A00120BADCE4A00120BADD7EE
:102A90004B00120BAD034C00120BAD3A4C00120B65
:102AA000AD094E00120BADC74E00120BAD3C4F00EE
:102AB000120BAD6B5000120BADC65100120BADC81E
:102AC0005200120BAD255400120BAD3E5400120BF8
:102AD000AD985400120BAD7F5500120BADB25500EE
:102AE000120BAD225600120BADA55600120BADEF26
:102AF0005600120BADB95700120BADBC5800120BAB
:102B0000AD9B5900120BAD265A00120BAD8B5A002B
:102B1000120BADFA5A00120BAD235B00120BADE3A2
:102B20005B00120BAD575D00120BAD745D00120B14
:102B3000AD935D00120BAD395E00120BAD615E000E
:102B4000120BADDC5E00120BAD365F00120BAD88D0
:102B50006000120BAD1C6100120BADE86100120B9E
:102B6000AD918E02120BADE18E02120BADED8E0215
:102B7000120BADCC8F02120BADFC8F02120BAD34D9
:102B80009002120BADAF9002120BADE79002120B48
:102B9000AD3B9102120BAD789102120BAD9A9302EC
:102BA000120BADCC9502120BADC19702120BAD9C6E
:102BB0009902120BADF67F00120BAD20A501120B8E
:102BC000AD6AA501120BADFEAB01120BAD60AD01FC
:102BD000120BADB4B301120BADAFB401120BADECDF
:102BE000B401120BAD0FB501120BAD51B501120BB3
:102BF000AD5AB501120BAD64B501120BAD50B60163
:102C0000120BAD44B701120BAD166200120BAD846E
:102C10006B00120BAD8A6B00120BAD657200120BCC
:102C2000ADE1AA03120BADD4AB03120BAD1FAC0385
:102C3000120BAD5DAC03120BADA9AC03120BAD26AC
:102C4000AD03120BAD6AAD03120BAD73AD03120BE6
:102C5000AD7FAD03120BAD99AD03120BADD5AD0336
:102C6000120BADEBAD03120BAD14AE03120BAD4363
:102C7000F002120BAD56F002120BAD70F002120B07
:102C8000AD99F002120BADDCF002120BAD1BF1029C
:102C9000120BAD59F102120BADBEF102120BADD306
:102CA000F102120BADDEF102120BADEBF102120BD1
:102CB000AD02F202120BAD10F202120BAD1BF202CA
:102CC000120BAD27F202120BAD3AF202120BAD4518
:102CD000F202120BAD68F202120BAD14F302120BEA
:102CE000AD24F302120BAD43F302120BAD60F302FD
:102CF000120BAD71F302120BAD8DF302120BAD9BF3
:102D0000F302120BADA5F302120BADB9F302120BD5
:102D1000ADDAF302120BAD3BF402120BAD41F4023B
:102D2000120BAD47F402120BAD4DF402120BAD5372
:102D3000F402120BAD7AF402120BADB5F402120BD1
:102D4000ADCFF402120BAD1AF502120BAD4DF50228
:102D5000120BAD218002120BADA38002120BAD5FEE
:102D60008102120BADF18202120BAD478502120BEC
:102D7000AD1A8602120BAD4F8602120BAD8D860284
:102D8000120BADFD8602120BADBA8802120BADE339
:102D90008802120BAD6F8902120BADA18902120BD2
:102DA000ADAE8902120BADF98902120BAD1F8A027A
:102DB000120BADEB8C02120BADE88D02120BAD4481
:102DC0008E02120BADB3EA01120BADDEEB01120B5A
:102DD000ADCDEC01120BADD7EC01120BADF9EC014E
:102DE000120BAD05ED01120BAD9EEE01120BADCB3A
:102DF000EE01120BADE4EF01120BAD3FF001120B2F
:102E0000ADABF101120BAD85F201120BADEDF2018C
:102E1000120BAD55F301120BAD8AF301120BADCDC0
:102E2000F301120BAD83F601120BAD9BF601120BF1
:102E3000AD30F701120BAD3EF701120BAD8BF70170
:102E4000120BAD99F701120BAD04F801120BAD7521
:102E5000F801120BADCCF801120BAD7AC202120BC5
:102E6000AD9CC202120BADADC402120BAD82C70203
:102E7000120BADA1C802120BAD5FC902120BAD550A
:102E8000CA02120BADBCB903120BADE1B903120BB0
:102E9000AD4FBA03120BADECE802120BADF5E80230
:102EA000120BADFEE802120BADE0E902120BAD957C
:102EB000EB02120BADC9EB02120BADF8EB02120BD9
:102EC000AD2CEC02120BAD5BEC02120BAD8FEC02E1
:102ED000120BADBBEC02120BADFEEC02120BAD2DD2
:102EE000ED02120BAD74ED02120BADCAED02120B26
:102EF000ADFDED02120BAD4DEE02120BAD7CEE02FC
:102F0000120BADCBEE02120BAD0EEF02120BAD3D6C
:102F1000EF02120BAD6EEF02120BADA4EF02120B1B
:102F2000ADA9FF01120BADF8C703120BADE2FF0212
:102F30000595D5F5FFFFFFFFE400FFFFC082C083CA
:102F4000E9900E71F00231A874F71213C9E99007E5
:102F5000D8F07C107D087AFF7BFF1226849007D979
:102F600074FFF0A3F0A3E4F0A3F0790512260C900F
:102F700007D8E0F91225347AA27B26122942023FB3
:102F80000074F41213C9EAFEEBFF5480602C900722
:102F9000D8E0F9121F648A088B09EA450960138A90
:102FA000828B83E064B07003122624AA08AB091256
:102FB0001F4CEEFAEF6480FB80047A007B007F04F4
:102FC00002149B74F21213C974FC121372EAFEEB22
:102FD000FF74121213BD123793EE4F700302306666
:102FE00074021213BDEEF0A3EF1248CE8510828555
:102FF0001183AA82AB8312252EE9F50A706BE508CE
:10300000450960658E828F831249C5EE4F60577AFD
:10301000067B00121FBE8A0C8B0DA80CA90DE84977
:103020007005750A13804288828983E4F012306E3D
:10303000A3EEF0A3EFF0888289831246859007DE25
:103040001230F69007DE70051248DE801CE0FCA30B
:10305000E08003EAFCEBFD8C828D831230F670F386
:103060008C828D8380E2750A02A90A023F8BA3122B
:10307000307322F088828983A32274F21213C989E3
:103080000AE975F017A4FEAFF09007DDE4F09007B1
:10309000DB1230F6600A121FC49007DBE4F0A3F0E5
:1030A000EEFAEFFB121FBE8A088B09EA4509602B76
:1030B000EEFCEFFD7900121F3A9007DB1246897B88
:1030C0000080081230E0E4F0A3F00BEBC3950A4057
:1030D000F2E50A9007DDF0790080027913023F9053
:1030E000EB75F017A4F8A9F09007DBE028FAA3E04D
:1030F000398A82F58322123E90EA4B2274F212132F
:10310000C9EAFEEBFF740E1213BD124522750800CA
:103110007509008003123786C3E5089CE5099D50B8
:103120002A85080A85090B7403780A12135FEE25B5
:103130000AFAEF350BFB8A828B83A3A312458FE536
:103140000C687003E50D6970CC80047A007B000286
:103150003F9074F41213C97900EAA2E0501B75087D
:10316000C475098F78081215DC7C047D007A737BA6
:103170000E1226067402121388022FBEC082C0836C
:103180009007DE1231AF601C88828983A3A3E06AB6
:103190007003A3E06B8882898370E8A3A3A3A312C2
:1031A0003E8C80047A007B00D083D082020BAA126E
:1031B0004597E8492274F01213C974FC1213728AFD
:1031C000088B09851082851183E4F0A3F0EA2402BC
:1031D000F50CEB3400F50D1238C78A828B83A3A35C
:1031E000A3A3E024FE603924FC604624FE60522440
:1031F000FE605E24FE70030232CD24FE70030233B3
:103200004F24FE700302335E24FE700302336D24EC
:10321000FC700302337C24FE700302338B0233CF35
:103220009007F77417F0A3E41233DE1222B80233CA
:10323000CF851082851183AC82AD8312262A02339A
:1032400098851082851183AC82AD831226300233BB
:103250009874021213BDAC82AD83850A82850B83FC
:10326000123C268A0E8B0FAC0EAD0FEC4D604CE479
:10327000F50EF50F780E1215DC750EF7750F077841
:103280000E1215DC750EF8750F07780E1215DC742A
:10329000081213BD1215F37916850C82850D831261
:1032A00048C5121388E9FF70147CF77D07850C82EE
:1032B000850D83123E8C1222D0800E7F01850A82FA
:1032C000850B831233D21248DEEF023399850A0E42
:1032D000850B0F74021213BDAC82AD83850E8285FF
:1032E0000F83123C268A0A8B0BAC0AAD0BEC4D60A7
:1032F0004D850E82850F83A3A31215F3750AF7750A
:103300000B07780A1215DC750AF8750B07780A1294
:1033100015DC74081213BD1215F37916850C82851D
:103320000D831248C5121388E9FF70147CF77D07DE
:10333000850C82850D83123E8C1222D6808B7F01F4
:10334000850E82850F831233D21248DE0232C98580
:103350001082851183AC82AD83122636803A8510A7
:1033600082851183AC82AD8312263C802B8510822E
:10337000851183AC82AD83122642801C8510828524
:103380001183AC82AD83122648800D851082851191
:1033900083AC82AD8312264EE9FEEE603285088250
:1033A000850983A3E064146026850882850983A3C8
:1033B000A3A3A3E09007F7F085108285118312453F
:1033C000939007F81248DEEEA31233DE1222B20207
:1033D00035CAE0F8A3E0F985108285118322F07CDC
:1033E000F77D07850C82850D83123E902274F012C2
:1033F00013C974FA12137274041213BD123C33F51C
:1034000008EB3400F5097C157D0079007AF77B071D
:10341000121F3AE5082402123D5A85108285118355
:1034200085820C85830D780C1215DC850882850950
:103430008312444B1215DCE5082405F50CE509342C
:1034400000F50D780C1215DC12446285088285099E
:1034500083123AE81213888A0C8B0DAE0CAF0DE57F
:103460000A2402F50AE50B1238CDEE4F700302353F
:10347000A3801574021213BD123E8C8882898312B8
:103480003B239007F7E004F09007F7E0C394054072
:10349000030235A3E4F50CF50D780C1215DC750C60
:1034A000E0750D07780C1215DC750CE1750D0778C9
:1034B0000C1215DC74061213BD1215F37910EEFC14
:1034C000EFFD850A82850B831248C5121388E970C7
:1034D0005C850882850983A3A3A3A3A3A3A3E0F823
:1034E0009007E0E068704612444F1215DC7CE17DE5
:1034F00007E5082408FAE5093400FB121F347402BA
:10350000121388E960278E828F83A3A3A3A3123EA0
:103510008C9007F7E0F50C7402780C12135F74F8C6
:10352000250CF5827407350DF583123B23740212C6
:1035300013BD85820C85830D780C1215DC74021284
:1035400013BD1215F3124462EEFAEFFB1225587404
:10355000041213888A0C8B0DAE0CAF0D9007F7E0A8
:10356000F50C750D007402780C12135F74F7250CBE
:10357000F87407350DF988828983A31230F6700339
:1035800002346AE82403080808E93400F9EE4F60C1
:10359000030234738882898374FFF0A3F09007F7E5
:1035A000E004F09007F7E0600A123E821222C4792C
:1035B00000801385088285098312459374041213D1
:1035C000BD1248DB790A7406800274041213887FE6
:1035D0000802149B74F01213C974F8121372740267
:1035E0001213BD123B2374061213BD123D857402E3
:1035F0001213BDE02405F8A3E0123E781248DE85E0
:103600001082851183123EABF508A3E0F5097E0018
:103610007F0074041213BD85820A85830B780A1219
:1036200015DC74021213BD124437F50A750B0078CD
:103630000A1215DC74041213BDE02405F50AA3E098
:103640001238CD780A1215DC74061213BD12441616
:1036500012379B12254C74061213888A0C8B0DEAC4
:10366000450D7003023738EA240412376412379389
:103670008A828B83A3A3A3E0F974021213BD123BC9
:103680000F6003023738E4F50AF50B780A1215DCEF
:10369000750AE0750B07780A1215DC750AE1750BDF
:1036A00007780A1215DC740A1213BD1215F3791388
:1036B000AC0CAD0D740A1213BD1248C0121388E988
:1036C000FF70759007E0E0F8EE7009E024029007C3
:1036D000F8F080149007F8E0FCE82402FAE43400E3
:1036E000FBEA6C7001EB70538E82AA821238D2947E
:1036F000141238BF5042850E82850F83E0C0E0125D
:103700003ACDD0E0123B18C0E0123AD9D0E0123BDB
:10371000291215DC1237701213889007E0E02EFE94
:1037200074FF6508700474FF6509600C123786EE3B
:10373000C394145003023612EE6012123AF174026E
:103740001213BD123B021222CA79008012EF7002DE
:103750007F0A74061213BD124416124689EFF974DB
:10376000080235CCF50EEB123D5E850E82F5832204
:103770007CE17D078E0A74F9250AFA74073400FB90
:10378000121F22740222E5082401F508E50934001D
:10379000F50922E0F508A3E0F50922A3A3E0FCA3C4
:1037A000E0FDAA08AB092274F01213C974FC1213CD
:1037B0007274021213BD123D85EA2405F50EEB1258
:1037C0003D5E7F009007F7E4F0FEEA24021238CA5B
:1037D00080489007F7E0FA9007E0E0F81238D294BA
:1037E000171238BF400D9007F7E0F87416C3989091
:1037F00007E0F0E0F50875090078081215DC7CE1B7
:103800007D0774F82AFA740712377D12138890071F
:10381000E0E0F89007F7E028F00EE50E2416F582B8
:10382000E50F3400F583E0F8EEC39840030238B4A6
:103830009007F7E0C39416507BEEC333F8E433F9F6
:10384000E50E28F508E50F39F50985108285118305
:10385000AC82AD83850882123D7BAC0CAD0DEC4D86
:1038600070137F01850882850983123C201213BDE5
:103870001248DB8045E4F50CF50D780C1215DC756B
:103880000CE0750D07780C1215DC750CE1750D0751
:10389000780C1215DC74061213BD1215F379168517
:1038A0000A82850B831248C5121388E9FF70030250
:1038B00037D280B0123E821222DCEFF90235CAE91B
:1038C0009400C365D03322EA2405F50AEB3400F5F1
:1038D0000B22EA28F8E43400F9E82274F01213C944
:1038E00074F8121372851082851183123B237406BB
:1038F0001213BD123D85851082851183E02405F5E4
:103900000CA3E03400F50D7E007F0074041213BD9B
:1039100085820885830978081215DC850C82850D5F
:1039200083A3A3A3A3E0F5088E0978081215DCE5AC
:103930000C2405F508E50D3400F50978081215DCAE
:10394000850C82850D83A3A3124468850C82850DA6
:1039500083123AE81213888A088B09801F888289AB
:103960008374FFF00E123AD974FF123B291215DC52
:103970001237701213889007E0E02EFEE508450923
:103980006029850882850983A3A31233D4123B0FD3
:10399000E5082404123D5AEF602B850E82850F83C3
:1039A00012459374061213BD1248DBEE7003023AFF
:1039B000B2123AF1851082851183123B021222E283
:1039C0007900023ACAE4F50AF50B780A1215DC759B
:1039D0000AE0750B07780A1215DC750AE1750B070A
:1039E000780A1215DC740A1213BD1215F37911ACA2
:1039F00008AD0974081213BD1248C0121388E9FFFC
:103A000070988E82AA82EE9007E07009E0240490FC
:103A100007F8F08025E0F89007F8E0F50AE82404BC
:103A2000FCE43400FDEC650A7001ED70841238D2BC
:103A300094121238BF40030239B1850E82850F837C
:103A4000E0C0E0123ACDD0E0123B18C0E0123AD903
:103A5000D0E0F00E74021213BD85820A85830B78C4
:103A60000A1215DC74061213BD1215F3850C82853B
:103A70000D8312379B12255874041213888A088B01
:103A8000098E0A74F9250AF874073400F9EA450921
:103A9000700302395D74021213BDE088828983F0DD
:103AA0000E74021213BDA3E0C0E0123AD9D0E002B6
:103AB000396AEF70027F0A850C82850D8312459367
:103AC00074061213BD1248DBEFF902375F74F92A4E
:103AD000F58274073400F583228E0A74F9250AF5FD
:103AE0008274073400F58322123E9012254C74062E
:103AF000229007F8E0F5F0EE849007F7F07CF77D70
:103B00000722123B06221248BAE0FAA3E0FB221277
:103B10003B0612253AE9FF22F00E850E82850F83BF
:103B2000A3E022EAF0A3EBF022F00E9007E01244AB
:103B3000802274F01213C974FC12137274021213EF
:103B4000BD123C33FEEB3400FF851082851183AC3F
:103B500082AD838E828F83123C268A088B09EA45C8
:103B6000097003023BF0E50A2402F50EE50B123D55
:103B70005E8A828B83A3A3A3E0A2E55022851082F4
:103B800085118312443D60637912AC08AD09850E3E
:103B900082850F831244581213C7E9F5087056E462
:103BA000F508F50978081215DC8E828F83A3A3E04F
:103BB000F50878081215DCEE2403F508EF3400F55B
:103BC0000978081215DC8E828F83124468123E96A3
:103BD000121388E9F508701D123C147029850E82B5
:103BE000850F83123E8C1222E8801B75080E800917
:103BF0007508018004E508600D8E828F83123C20D9
:103C00001213BD1248DB123C14600479008002A933
:103C1000080235CAEE2418F582EF3400F583E0225D
:103C2000124597740222123C2A22E0FAA3E0FB120A
:103C3000255222ECF0A3EDF08A0A8B0BEA24052230
:103C400074F01213C974FC12137274021213BD12B1
:103C50003D858A0E8B0F1238C77508008510828546
:103C60001183AC82AD83850A82123D7BAE0CAF0D11
:103C7000EE4F7003023D43E50E2402F50EE50F12F0
:103C80003D5E8E828F83A3A3A3E0A2E5502F851013
:103C900082851183123E8C1226608A088B09EA45C0
:103CA0000960427912EEFCEFFD850E82850F8312CA
:103CB0003D711213C7E9F5086003023D46850E8287
:103CC000850F831249C9EEFAEFFB123D6370127A39
:103CD000FF7BFF123D63606688828983EEF0A3EF6D
:103CE000F07E00800675080E805C0E9007DDE0FA1D
:103CF000EEC39A5049EE75F017A4FAABF0888289AA
:103D000083A3A3E02AFAA3E03BFB8A828B831244BD
:103D100068EC4D70D5750C17750D00780C1215DC1C
:103D2000AC0AAD0B121F227402121388AC0AAD0B41
:103D3000850E82850F83123E8C1222EE8017750845
:103D4000098003750801850A82850B83123C2012C5
:103D500013BD1248DBA9080235CAF50EE509340087
:103D6000F50F221226548A0C8B0DA80CA90DE849D8
:103D700022123E9085088285098322F583123C2A0F
:103D80008A0C8B0D22ECF0A3EDF02274F01213C913
:103D900074FC12137274021213BD123D85EA2405DD
:103DA000F8EB123E781248DE750900EA2402123759
:103DB00064123E8C12495B7003023E6775080080F6
:103DC0006E851082851183123EAB6401704A8E822B
:103DD0008F83A3A31215F38E828F8312444B121587
:103DE000DCEE2405F50CEF3400F50D780C1215DC33
:103DF000123E96121388E9F509601D85108285111F
:103E000083124416E4F08E828F83123E8C74021269
:103E100013BD124416123B237C177D007900EEFA85
:103E2000EFFB121F3A8E828F83E4F0A3F005089017
:103E300007DDE0F8E508C398501EE50875F017A403
:103E4000F8A9F0850A82850B83A3A31248A5124422
:103E500068EC4D6003023DC1850A82850B8374FFC7
:103E6000F0A3F0E509700C850E82850F83123E8C5D
:103E70001222F4A9090235CA3400F985108285118D
:103E800083227CF77D07850A82850B83123E902270
:103E9000E0FAA3E0FB22850E82850F83123E90128A
:103EA0002672740622850A82850B8312441AE02248
:103EB000C082C0839007D9E06A7003A3E06B7006EC
:103EC0007AD97B0780047A007B000231A874F7124C
:103ED00013C97F00EF75F003A4F8A9F0EC28F8ED02
:103EE00039F988828983E06A7003A3E06B7006E881
:103EF000FAE9FB800B0FEFC3940240D87A007B00F5
:103F00007F0102149B74F61213C912453170067AB0
:103F1000007B008007A3A3A3A3123E8C024601747A
:103F2000F21213C9E9FE740E1213BDE0F50AA3E004
:103F3000F50B74101213BDE0F50CA3E0F50D8C82A7
:103F40008D83E06402704012459288828983E0F597
:103F500008A3E0F9A808740268700374296970273F
:103F600075080275090078081215DC850C08850DA6
:103F70000978081215DC780A1215DCEEF91226967B
:103F80007406121388800279018005740412138864
:103F90007F0602149B74F01213C974F61213727424
:103FA000061213BD123B2374021213BD123D857419
:103FB000011213BDE9F0741C1213BD123793742063
:103FC0001213BD1249C9851082851183E4F0740271
:103FD0001213BD1248B1E0A2E4502F741A1213BD9F
:103FE00012443D70030240C2790A74021213BD12DA
:103FF000446874061213BD1244581213C7E98510A1
:1040000082851183F060030240CB74021213BD124B
:104010003EAB640260030243A974021213BDA3E025
:10402000F5838882124592850882850983A385825B
:104030000E85830F74021213BDE02406F50AA3E077
:104040001238CD88828983E0FAA3E0F9EA2400F5EA
:104050000CE439F50D780C121666010000280128D1
:104060008240070002287A410328E2400029B54235
:104070000129DD4202297D420329B5420429464334
:10408000A943EE4F7052850A82850B83124593E84F
:10409000FAE9FB8A828B83E0C0E0741E1213BD1222
:1040A0004416D0E01244771215DC8A828B83A3E099
:1040B000FCA3E0FDAA08AB09121F227402121388A8
:1040C0008009851082851183740EF0851082851118
:1040D00083E0F9740A0235CC851082851183740B54
:1040E00080E8EE4F70F2741E1213BD124416740174
:1040F000F0123EA5850882850983F07C007D00745E
:10410000021213BD1244372401FAA3E03400FB125B
:104110002552EA4B60498A828B83E02402F8741EA0
:104120001213BDE0F9A3E0F5838982E028F0EA24C8
:1041300004F8EB3400F988828983E0850E82850FCC
:10414000831244891244771215DC8A828B83A3126E
:104150004468E5082403FAE5093400FB0240B8741A
:104160001E1213BD123EAB2404F07C047D007900C6
:10417000AA0EAB0F121F3A0240CBEE4F6003024073
:10418000D8123EA5FEA3E0FF741E1213BD12441602
:104190007404F0EE850882850983F0EF850E828530
:1041A0000F83F074081213BDAC82AD83EEFAEFFBFF
:1041B0001225528A0A8B0BEA450B700302425B8A76
:1041C000828B83A3A31249C574041213BD85820C8C
:1041D00085830D780C1215DC740A1213BD1215F3C9
:1041E0007CFF7DFF12255874041213888B0DEA455D
:1041F0000D7033850A82850B8312444F1215DC85BE
:104200000A82850B83A31215F37C027D007A817BE1
:10421000901223907404121388E9700A7404121324
:10422000BD74FFF0A3F08E828F83E0640270367558
:104230000A02750B00780A1215DC8E828F83A31296
:104240004468E5082404FAE50912377D12138874DE
:104250001E1213BD123EAB2402800974041213BD5A
:10426000EEF0A3EFF074041213BD12440CF07404CA
:104270001213BDA3124404A3A3A30240CAEE4F60CD
:10428000030240D8850A82850B83124468740612A3
:1042900013BD123E8C12268A8A0A741E1213BD1296
:1042A0004427E50A850882850983F0850E82850FFB
:1042B00083EB0240CAEE4F60030240D8123EA5F8DD
:1042C000A3E0F9741E1213BD124427E88508828505
:1042D0000983F0E9850E82850F830240CA123E866B
:1042E000121F1CEAFC8C82A882C39EE49F404CE80B
:1042F0006E7001EF70047C00801E74011213BDE02B
:10430000FAEE2AFAEF3400FBC3EA98EB940050036C
:10431000E08004EECCC39CFC741E1213BD12441644
:10432000ECF08C0C750D00780C1215DC850A82857A
:104330000B83E02EFCA3E03F0240B3851082851181
:104340008374070240CAEE4F60030240D8850A8298
:10435000850B83124593741E1213BD12442E7407ED
:10436000F08882898312440412306FE0850E8285C2
:104370000F83F0E82402FAE93400FB8A828B83126F
:10438000440412446E12440C12306EA3A3A31244D0
:1043900010F0E82405F8E93400F988828983124492
:1043A00010A3124489A3024277741A1213BD124556
:1043B0002A70030240C2124593880A890BE8450B14
:1043C00070030240C28E0C8F0D780C1215DC742025
:1043D0001213BD1215F378081215DC74071213BD01
:1043E000E0F974081213BD124468740C1213BD1264
:1043F00044581213C77406121388E9851082851178
:10440000830240CAE08508828509832212449022F3
:10441000124490A3A32212441A2212441E22E0F84E
:10442000A3E0F58388822212442E7402F022E0FA7F
:10443000A3E0F5838A82221248B5A3E022123E90BF
:104440001226608A0A8B0BEA450B22A3A3A3A3E0E2
:10445000F50C750D00780C22123E90850A82850BB2
:104460008322850E82850F83E0FCA3E0FD22A3A3B7
:10447000F08A828B83A322F08A828B83124480226B
:10448000E0F50A750B00780A22123073124490226C
:10449000E0850882850983A3A32274F21213C974EC
:1044A000FC12137274021213BD123B23ECFAEDFBE3
:1044B00074141213BDE0FE74161213BDE0F50AA3C6
:1044C000E0F50B851082851183AC82AD83122552F5
:1044D0008A088B09EA450960448510828511831298
:1044E000452A6035A3A3124522E8450D602B780AC2
:1044F0001215DC74141213BD1215F3EEF9AC08ADED
:104500000974061213BD123E8C850C82850D831230
:1045100013C774041213888006790E800279010291
:104520003F8B124597880C890D22123E901245311F
:104530002212261E8A828B83E58245832274F6121C
:1045400013C974FE121372740C1213BD124593E852
:10455000851082851183F074011213BDE9F0E4F532
:1045600008F50978081215DC75080278081215DCC0
:1045700074041213BD85820885830978081215DC3E
:10458000122672740612138874021213888072A3A2
:10459000A3A3A312459722E0F8A3E0F92274F7122F
:1045A00013C9EAFEEBFF89087C107D0812268AEA0F
:1045B0005402600BA908EEFAEFFB1225468002793F
:1045C00001023F0074F61213C974FF6A700374FF8E
:1045D0006B701C7B00EB75F003A4F8A9F0EC28F8D5
:1045E000ED39F91246060BEBC39402501480E61223
:1045F000265A8A088B09A808A909E84960031246C7
:10460000067F0202149B8882898374FFF0A3123014
:1046100073A3E4F02274F61213C912265A8A828B0D
:1046200083E58245836006A3A3E0FA80027A007BDB
:104630000080CE74F21213C98A088B098C0A8D0B84
:10464000740E1213BDE0FE12265A8A0C8B0DA80CB4
:10465000A90DE8497022AC0AAD0B7AFF7BFF122648
:104660005A8A0A8B0BA80AA90BE8497004791180B1
:104670001188828983124689EE88828983A3A3F0F8
:104680007900023F90A3A3A3A3E508F0A3E509F0F6
:104690002274F01213C974FE1213728510828511F0
:1046A00083123D858A088B09890B74121213BD127F
:1046B000459374141213BD12446874161213BD127C
:1046C0003E8C750A00EC4D600302475E7402650B78
:1046D000600302475988828983E0FCA3E0F9EC2457
:1046E00000FEE439FFEAF4F8EBF4F9EE58F8EF597C
:1046F000F9E849705F851082851183E02406F50E84
:10470000A3E012376712379D12268A8A0C8B0DEEB2
:10471000650C7003EF650D60488E0C8F0D780C12E0
:1047200015DC850E82850F8312379D122690740248
:10473000121388E9F50A7029780C1215DC7402123C
:1047400013BD124416A3A312379B1226A87402129B
:104750001388800D750A808008750A0D8003750A1C
:104760000BA90A74020235CC74F01213C974E51255
:10477000137274021213BDEAF0A3EB1248CE890E35
:10478000742F1213BDE0F50F750800750900E509D7
:1047900075F003A4F8A9F074021213BD1248A5E045
:1047A000F47003A3E0F470030248928E828F83A317
:1047B000A3E070030248928510828511831215F3DD
:1047C000742F1213BD124468742D1213BD123E8C47
:1047D00012261274021213888A0C8B0DEA450D7092
:1047E00003024892E4F50AF50B780A1215DC740806
:1047F0001213BD85820A85830B780A1215DC740BAF
:104800001213BD85820A85830B780A1215DC743178
:104810001213BD1248B1A31215F37914AC0CAD0DEF
:104820008E828F831248C5121388E97065850C82C9
:10483000850D8312458F74041213BD1248DE8E82DB
:104840008F83A3A3E0A2E05018A90E74041213BD35
:10485000AC82AD838E828F83123E8C12256AE94230
:10486000088E828F83A3A3E0A2E15026E50FF50A0C
:10487000780A1215E0A90E74051213BDAC82AD833F
:104880008E828F83123E8C1225647401121388E984
:1048900042080509E509C39402500302478EA9089E
:1048A000741B0235CCE028FEA3E039FF8E828F8393
:1048B000221248B5221248BAA32212441EA3A322F0
:1048C00012441AA3A3123E9012266C740822F0859B
:1048D0001082851183ECF0A3EDF02212442EE8F053
:1048E000A3E9F02274F21213C98A088B09E9FF7454
:1048F000016F600D74026F705F7901122960E970B9
:1049000057AA08AB0912495B60437E00800A7C17F6
:104910007D007900121F3A0E9007DDE0F8EEC39893
:104920005020EE75F017A4F8A9F0850A82850B8354
:10493000A3A3E028FAA3E039FB8A828B831231AF6C
:1049400070CC850A82850B8374FFF0A3F07C107D08
:1049500008AA08AB09122684023F901226548A0A3C
:104960008B0BEA450B2274F21213C98A0A8B0B8C4B
:10497000088D09740E1213BD1249C9900E71E0F42E
:1049800060407A097B00121F46EA4B60358A828BB1
:104990008374B1F0A3E4124470A312446EA3E50A39
:1049A000F0A3E50B1244701246858A828B83A3A381
:1049B000A3A3A3A3A3EEF0A3EFF0900E71E0F9126E
:1049C0001F52023F90A3A3A3A3E0FEA3E0FF22C0D7
:1049D00082C0839061907404F0A37448F0A3E4F063
:1049E0009061807440F09061BC7407F090618774AE
:1049F00069F09061B67416F090619A7433F0A37404
:104A000055F09061A0743AF09008BD7461F0902F59
:104A100032E493906186F0902F34E493F46027E4BD
:104A200093540FF8906185E0686012E5C6548044A5
:104A300049F5C6E59E547F644970F8E8F053C68096
:104A4000E59E547F70FA7905122D0E024BD0C0827C
:104A5000C083E9540FF9906185E0696012E5C6549E
:104A6000804449F5C6E59E547F644970F8E9F053E7
:104A7000C680E59E547F70FA024BD0C082C083E5A9
:104A8000A8F853A87E906181E4F0A3F0A3F0C2BA25
:104A9000539AFEC289759B00C2C275E900759100E8
:104AA00075BF0075A91175B905906181F0A374C037
:104AB000F0A3E4F0D2BA439A0174805842A8024BA2
:104AC000D0C082C083906181E4F0A3024BCDC0824C
:104AD000C08374F81213729008BCE07003024BC6D6
:104AE000A2E650237908851082851183AA82AB83C0
:104AF000122B6A851082851183AA82AB83122768E4
:104B00009008BCE0C2E6F0E0A2E75010790C7A68A9
:104B10007B0A122B6A9008BCE0C2E7F0E0A2E050EA
:104B20002090619A7433F0A37455F09061A0743AA8
:104B3000F09008BD7461F012276E9008BCE0C2E0EE
:104B4000F0E0A2E1502090619A743FF0A3745AF013
:104B50009061A0747FF09008BD746AF012276E9087
:104B600008BCE0C2E1F0E0A2E25013902F30E493E1
:104B7000906186F01227749008BCE0C2E2F0E0A2D7
:104B8000E35013902F31E493906186F012277490D4
:104B900008BCE0C2E3F0E0A2E45013902F32E493AB
:104BA000906186F01227749008BCE0C2E4F0E0A2A5
:104BB000E55013902F33E493906186F012277490A0
:104BC00008BCE0C2E5F074081213888003F0A3F07B
:104BD000D083D082020BAAC082C083E9600B14602C
:104BE0000D14600F1460118018902F30800D902FDD
:104BF000318008902F328003902F33E493906186A8
:104C0000F080CD74F61213C9906186E0F875080043
:104C100075823075832FE49368701074D02508F581
:104C200082748F3400F583E0F9800C0508A3E50851
:104C3000C3940440E179800256A074F01213C97441
:104C4000EF12137274051213BDAC82AD837583909D
:104C50007582567404121285902F3093F46003020B
:104C60004DFF907808E0C394025003024DDF758336
:104C70008F7582B6740812128574051213BDA8824E
:104C8000A98374031213BDE8F0A3E9F074091213A9
:104C9000BDAE82AF8374011213BD74FFF0A3F08523
:104CA0001082851183F07C00750E48750F7880188E
:104CB00074086C7003024D5774096C7003024D57F1
:104CC000740A6C7003024D57850E82850F83780835
:104CD0001212428E828F83A909E50AC9F8880C74E2
:104CE00018780812115DE50C4508F8C3E098A3E0B8
:104CF00099850E82850F83780812124240188E82A1
:104D00008F837418780812115DE50C4508F8E0C32C
:104D100098F8A3E0801C7418780812115DE50C4522
:104D200008FAE9FB8E828F83E0F8A3E0F9EAC398E2
:104D3000F8EB99F974011213BDE0FAA3E0FBC3E8A4
:104D40009AE99B501274011213BDE8F0A3E9F0EC4C
:104D5000851082851183F00CE50E2404F50EE50F15
:104D60003400F50FECC394135003024CB0740112DD
:104D700013BDE0F47003A3E0F46031851082851167
:104D800083E0F5087402780812135F74482508F56B
:104D90008274783509F5837808121242740312136D
:104DA000BDE0F8A3E0F5838882E508F0EE24020E6A
:104DB0000EEF3400FF74031213BDE02401F8A3E0EA
:104DC0003400F974031213BDE8F0A3E9F074111272
:104DD00013BDE5826E7003E5836F6003024C957529
:104DE000080175090078081215DC74071213BDACB0
:104DF00082AD837ACC7B0B12216274021213887409
:104E0000111213887F0802149B74F41213C974FCE6
:104E1000121372902F38C08290902278081212429A
:104E200075832FD08278081210156003024EBDE5FD
:104E3000C654804449F5C6E59E547F644970F875B0
:104E4000E50475DA0075DB0C75AF0075E40975E2F1
:104E500000E5AFA2E050FA75E20053C680E59E542B
:104E60007F70FA75E400E5E2851082851183F0E534
:104E7000E374011213BDE4F0851082851183780874
:104E80001212427401780812117690905E7808121E
:104E9000121C851082851183780812125175080141
:104EA00075090078081215DC74021213BDAC82ADCE
:104EB000837ACE7B0B12216274021213887404125F
:104EC00013887F0402149BC082C08375E1F1900AAD
:104ED00000E0605514600814605914605180591244
:104EE0002AAA9009F6E0F97AF77B09122C8A9090A9
:104EF00036121260122CC090903A121260122C9648
:104F0000900A01E0F9122CA27901122D029009F405
:104F1000E02416F8A3E03400F98882898374C2F093
:104F2000A3742AF07900024BD0122AB080B4122A5E
:104F3000B680AF122ABC80AA791280EA74F41213E8
:104F4000C975D90D9009E6E0A2E0E4331313F89097
:104F500009F6E0C4333354C0484401F5D978F479F4
:104F60000988828983A3A3A3E0F5D988828983A3D2
:104F7000A882A983E864FA7003E9640970E378E61B
:104F8000790988828983A3E0F5D988828983A3A8D7
:104F900082A983E864EC7003E9640970E575E19522
:104FA0009009E6E0F97AE77B09122C90900E937451
:104FB0004AF0A3742AF0A374B2F0A3742BF0A37484
:104FC000B2F0A3742BF0A374B2F0A3742BF0A3740B
:104FD00050F0A3742AF0A374B2F0A3742BF0A3745E
:104FE00068F0A3742AF0900EA174B2F0A3742BF0B1
:104FF000A374B2F0A3742BF0A374B2F0A3742BF0DB
:10500000A374B2F0A3742BF0A374B2F0A3742BF0CA
:10501000A374B2F0A3742BF09009F4E0F8A3E0F5C8
:10502000838882A3A3780812124290902A780812EB
:1050300011A890904278081211F69009F4E0240E1D
:10504000F8A3E03400F9888289837808121251901D
:1050500009F4E02414F8A3E03400F9888289837409
:1050600013F09008BA7402F0024EC2C082C083905E
:105070000A06E02407F5D99009F6E0C4333354C09A
:10508000F5D978F4790988828983A3A3A3E0F5D9B7
:1050900088828983A3A882A983E864FA7003E964FB
:1050A0000970E3900A06E0601F78F47909FAE824B1
:1050B00013F582E93400F583E0F5D988828983A36A
:1050C000A882A9831AEA70E6900A26E02407F5D997
:1050D0009009F6E0C4333354C04404F5D978F47928
:1050E0000988828983A3A3A3E0F5D988828983A351
:1050F000A882A983E864FA7003E9640970E3900A5E
:1051000026E0601F78F47909FAE82433F582E9345F
:1051100000F583E0F5D988828983A3A882A9831A40
:10512000EA70E675E195900E937456F0A3742AF038
:10513000A374B2F0A3742BF0A374B2F0A3742BF099
:10514000A374B2F0A3742BF0A37450F0A3742AF0EC
:10515000A374B2F0A3742BF0A37468F0A3742AF0C4
:10516000900EA174B2F0A3742BF0A374B2F0A374E8
:105170002BF0A374B2F0A3742BF0A374B2F0A37459
:105180002BF0A374B2F0A3742BF0A374B2F0A37449
:105190002BF09090221212609009F4E0240EF8A3F4
:1051A000E03400F98882898312126C9009F4E024BB
:1051B00014F8A3E03400F9888289837412F090080F
:1051C000BA7401024BCFC082C083900A06E0240764
:1051D000F5D99009F6E0C4333354C04402F5D978C8
:1051E000F4790988828983A3A3A3E0F5D988828909
:1051F00083A3A882A983E864FA7003E9640970E3D1
:10520000900A06E0601F78F47909FAE82413F58221
:10521000E93400F583E0F5D988828983A3A882A9BF
:10522000831AEA70E675E195900E937462F0A374A8
:105230002AF0A37462F0A3742AF0A37462F0A3743A
:105240002AF0A37462F0A3742AF0A37462F0A3742A
:105250002AF0A37462F0A3742AF0A37468F0A37414
:105260002AF0900EA174B2F0A3742BF0A374B2F0E4
:10527000A3742BF0A374B2F0A3742BF0A374B2F058
:10528000A3742BF0A374B2F0A3742BF0A374B2F048
:10529000A3742BF09090221212609009F4E0240E77
:1052A000F8A3E03400F98882898312126C9009F423
:1052B000E02414F8A3E03400F9888289837414F0A0
:1052C0009008BA7404024BCFC082C083900A06E0F3
:1052D0002407F5D99009F6E0C4333354C04406F5E9
:1052E000D978F4790988828983A3A3A3E0F5D988C2
:1052F000828983A3A882A983E864FA7003E9640918
:1053000070E3900A06E0601F78F47909FAE8241344
:10531000F582E93400F583E0F5D988828983A3A872
:1053200082A9831AEA70E6900A26E02407F5D9904C
:1053300009F6E0C4333354C04404F5D978F479094C
:1053400088828983A3A3A3E0F5D988828983A3A84F
:1053500082A983E864FA7003E9640970E3900A267D
:10536000E0601F78F47909FAE82433F582E9340023
:10537000F583E0F5D988828983A3A882A9831AEAF4
:1053800070E675E195900E93745CF0A3742AF0A317
:1053900074B2F0A3742BF0A374B2F0A3742BF0A337
:1053A00074B2F0A3742BF0A374B2F0A3742BF0A327
:1053B00074B2F0A3742BF0A37468F0A3742AF09075
:1053C0000EA174B2F0A3742BF0A374B2F0A3742BEB
:1053D000F0A374B2F0A3742BF0A374B2F0A3742BF7
:1053E000F0A374B2F0A3742BF0A374B2F0A3742BE7
:1053F000F09090221212609009F4E0240EF8A3E0DD
:105400003400F98882898312126C9009F4E0241424
:10541000F8A3E03400F9888289837415F09008BA03
:105420007403024BCFC082C0839009F4E0F8A3E07C
:10543000F5838882A3A3A3A3A3A3E4024BCD74F7AF
:105440001213C99008E5E075F0FFA4F8A9F074E71D
:1054500028F8740839F9E82405FAE93400FB8A824F
:105460008B83E0FCA3E0FD88828983A3A3A3A3A38D
:10547000A3A3A3A3ECF0A3EDF088828983A3A3A345
:10548000A3A3A3A3E024FFF8A3E034FFF98A828B4F
:1054900083E8F0A3E902557974F71213C9EAFEEB29
:1054A000FF9061D0E0600302557575D90E75D90380
:1054B00075D904EE248CF582EF3400F583E582245F
:1054C00008F8E5833400F9E0F5D9A3E865827003B4
:1054D000E9658370F2EE2484F582EF3400F583E50C
:1054E000822404F8E5833400F9E0F5D9A3E8658265
:1054F0007003E9658370F275E1957908EE248CFA02
:10550000EF3400FB122B5E7904EE2484FAEF3400B2
:10551000FB122B5E7C00EEF8EFF9ECFAC3E49AFA8A
:1055200095E0FBEE2AFAEF3BFBEA248BF582EB34A5
:1055300000F583E0C0E0E824ABF582E93400F583B0
:10554000D0E0F00C88828983A3A882A983ECC3945D
:105550000840C7EE2470F582EF3400F583E0F8A32D
:10556000E0F9EE2472F582EF3400F583E8F0A3E968
:10557000F07901800279008001F07F0102149BC064
:1055800082C08375D90275D90375D90575E195EA8D
:105590002470F582EB3400F583E0F8A3E0F9EA2407
:1055A00072F582EB3400F583E8F0A3E9F0790102AB
:1055B0004BD074F61213C9EAFEEBFF900A4874064A
:1055C000F075084875090A78081215DC7C01790322
:1055D000122BA6740212138875D90675D903758229
:1055E0004875830AE0F5D9A3E582644D7004E5832C
:1055F000640A70F075E1959008BAE06408701EEED8
:105600002470F582EF3400F583E0F8A3E0F9EE248E
:1056100072F582EF3400F583E8F0A3E9F079010236
:1056200056A074F61213C9EAFEEBFF9061D0E07049
:10563000667801900A48740BF09008BAE06407702D
:105640001975084875090A78081215DC7C01790378
:10565000122BA674021213887805740128F5D975E7
:10566000D90375824875830AE8FAE0F5D9A31AEAE6
:1056700070F875E195EE2470F582EF3400F583E063
:10568000F8A3E0F9EE2472F582EF3400F583E8F038
:10569000A3E9F07901800279008005EDA2E092AFE4
:1056A0007F0202149B74F71213C9EAFEEBFF75D94F
:1056B0000375D90375D90DEE24DEF582EF3400F5BC
:1056C00083E0F5D975E1957904122CC6EE2470F5C6
:1056D00082EF3400F583E0F8A3E0F9EE2472F5825E
:1056E000EF3400F583E8F0A3E9F0790102557A740C
:1056F000F61213C9EAFEEBFF9061D0E0F87480C3A4
:1057000098FAEE2483F582EF3400F583E0600478A4
:105710000480027800E8240BF8EAC398500302578B
:10572000B47D09900A48EDF0EE24E3F8EF3400F977
:105730007A497B0A7C0888828983E08A828B83F09D
:1057400088828983A3A882A9838A828B83A3AA8261
:10575000AB831CEC70E0EE2483F582EF3400F5831C
:10576000E0601D75084875090A78081215DC7C0987
:105770007903EEFAEFFB122BA674021213887D0D4B
:1057800074012DF5D975D90375824875830A8D0882
:10579000E0F5D9A31508E50870F675E195790412CE
:1057A0002CC6EE241DF582EF3400F583E4F0A3F05F
:1057B0007901800279000256A074F61213C9EAFE3C
:1057C000EBFF9061D0E0F87480C398FAEE2483F583
:1057D00082EF3400F583E06004780480027800E80A
:1057E0002408F8EAC39850030258B77C06900A4888
:1057F000740CF09008D6E0900A49F07AD77B0878CC
:105800004A790A7D028A828B83E088828983F08AC2
:10581000828B83A3AA82AB8388828983A3A882A96F
:10582000831DED70E07AD97B087D028A828B83E04C
:1058300088828983F08A828B83A3AA82AB83888241
:105840008983A3A882A9831DED70E0EE2483F582ED
:10585000EF3400F583E0601B75084875090A780885
:105860001215DC7903EEFAEFFB122BA67402121369
:10587000887C0A74012CF5D975D903758248758323
:105880000A8C08E0F5D9A31508E50870F675E195CE
:105890007904122CC6EE2470F582EF3400F583E013
:1058A000F8A3E0F9EE2472F582EF3400F583E8F016
:1058B000A3E9F07901800279000256A074F6121370
:1058C000C9EAFEEBFF9061D0E0F87480C398FAEE6D
:1058D0002483F582EF3400F583E0600478048002CD
:1058E0007800E82404F8EAC3985003025996780235
:1058F000900A48E8F0EE24F5F582EF3400F583E0F5
:10590000900A49F0EE2483F582EF3400F583E060DD
:105910001B75084875090A78081215DC7C027903A2
:10592000EEFA122BA674021213887806740128F579
:10593000D975D90375824875830A8808E0F5D9A31B
:105940001508E50870F675E195EE2474F582EF34DC
:1059500000F583E4F0EE2480F582EF3400F583E473
:10596000F0EE241DF582EF3400F583E4F0A3F07926
:1059700004122CC6EE240DF582EF3400F583E0F816
:10598000A3E0F9EE2472F582EF3400F583E8F0A38A
:10599000E9F07901800279000256A074F61213C969
:1059A0009061D0E0F87480C398FCEA2483F582EB20
:1059B0003400F583E06004780480027800E8240471
:1059C000F8ECC398405B7902900A487407F0EA2427
:1059D000F6F582EB3400F583E0900A49F0EA24837F
:1059E000F582EB3400F583E0601875084875090A04
:1059F00078081215DC7C0209122BA6740212138897
:105A00007906740129F5D975D90375824875830A19
:105A1000E9F8E0F5D9A318E870F875E19579018007
:105A20000279000256A074F61213C9E9FCA2AFE491
:105A300033FDC2AF7E0080010EEA246FF582EB34A5
:105A400000F583E0F8EEC398501A8E08EA2508F8AE
:105A5000EB3400F9E8246BF582E93400F583E06C5F
:105A600070D68024EA246FF8EB3400F9E0FEEA2EC9
:105A7000FAEB3400FBEA246BF582EB3400F583EC9F
:105A8000F088828983E004F002569B74F61213C9F1
:105A9000A2AFE433FDC2AFEA246FF582EB3400F528
:105AA00083E014F07C0060368C08EA2508F8EB34BB
:105AB00000F9E8246CF582E93400F583E0C0E0E801
:105AC000246BF582E93400F583D0E0F00CEA246F12
:105AD000F582EB3400F583E0F8ECC39840CAEA2481
:105AE0006EF582EB3400F58374FFF0EA246AF582E8
:105AF000EB3400F583E4F002569BC082C083E5A836
:105B0000F8C2AFEA246BF582EB3400F583E9F0EAE2
:105B1000246AF582EB3400F583E4F0E8A2E792AF63
:105B2000024BD074F21213C9EAFEEBFFECFAEDFB64
:105B30008A828B83A3A3A3A3E0541FF0EE2436F53F
:105B400082EF3400F583E4F0F9EEFCEFFD8A828BFE
:105B500083E0C0E0EC245DF582ED3400F583D0E015
:105B6000F0750A00E933333354F8F50B8A828B83DE
:105B7000E0F508750900E50A7808121340E508A267
:105B8000E05034EE2436F508EF3400F5098508823C
:105B9000F583E0F50CEE250CF50CEF3400F50DE582
:105BA0000C2438F582E50D3400F583E50BF085080B
:105BB00082850983E004F0050A050BE50AC3940811
:105BC00040AA098A828B83A3AA82AB838C828D83AD
:105BD000A3AC82AD83E9C394055003025B4D7F06FD
:105BE00002149B74F71213C99008E3E06401700774
:105BF0007A007B00025D547E009008E9E070F17449
:105C000001F0A3E4F0A3F090094904F090094CE4FA
:105C1000F0A3F090094F04F09008ECE4F0A3F0A397
:105C2000F0A3F090091CF090902E1212609008FFE3
:105C300012126C900903E4F0A3F0A3F0900967F04E
:105C400090095BF09009507480F0A3E4F09009563D
:105C5000F090094EF09009D2F0A3F0A3F0A3F0A3C6
:105C6000F0A3F0A3F0A3F09009DBF090096AF090A4
:105C700009BAF0A3F090902E1212609009BC121293
:105C80006C90902E1212609009C012126C9009C68E
:105C9000E4F09009C8F09009C4F09009DEF0A3F098
:105CA000A3F0A3F0A3F0A3F0A3F0A3F078E37908A6
:105CB000E8246FF582E93400F58374FFF00E8882E2
:105CC0008983A3A882A983EEC3940440E37AE37B8B
:105CD0000878ED790988828983E0C0E0EA2461F5DB
:105CE00082EB3400F583D0E0F088828983A3A88218
:105CF000A9838A828B83A3AA82AB83E864F27003B0
:105D0000E9640970D07AE37B0878CC7908888289C5
:105D100083A3E0C0E0EA24E7F582EB3400F583D00A
:105D2000E0F088828983A3A882A9838A828B83A3D7
:105D3000AA82AB83E864D47003E9640870CF90084A
:105D4000E3E004F0640170089008EBE09008E5F0EF
:105D50007AE77B0802557AC082C0839008EAE4F0B3
